:040000000200743254
:03000B000200DC14
:0100130032BA
:01001B0032B2
:0100230032AA
:03002B000200D7F9
:100030000000E2FBEAF2802C0000E0FBEAF0802402
:10004000E6B50202EBF62200E2B50202EBF2220074
:10005000E0B50202EBF02230F6E0A88220F5D3EA08
:10006000C6F582228B822230F6E6A88220F5D9805E
:01007000CFC0
:0A00CD00E4F510F511F512020071C0
:0300710002012366
:1000D700C2CF051232C0E0C0F0C082C083C0D07565
:1000E700D008E5102496F582E5113401F583E493F1
:1000F700FFBFFF02801BEF75F002A42474F5827422
:100107000135F0F583E493FEA3E493F58C8E8AB270
:10011700B4D0D0D083D082D0F0D0E032D2AFD2A941
:10012700D2AD75890175CB0B75CADCD2CAE4F5105F
:10013700F511E5102496F582E5113401F583E49372
:10014700FFBFFF028002D28C74FB251250FAC28CCB
:100157007512000510E4B510020511C3E510946887
:09016700E5116480948140CA2274
:1001740021F980F9E0F936FA8BFAD7FA22FB68FB09
:10018400A9FBE8FB23FC5BFC90FC91FD45FDD5FD40
:10019400F4FD040B0808040B0808040B0909040BFC
:1001A4000909040B0808040B0808040B0909040BCB
:1001B400FF0406060604060B0B0808080808FFFFE0
:1001C400FF0406060604060B0B0404040404FF0BD8
:1001D4000808080808FF01010606080804040808BE
:1001E4000101010101FF08080606060606FFFFFFDC
:1001F4000406060604060B0B0808080808FFFFFFA0
:100204000406060604060B0B0404040404FF0B0B8B
:100214000808080808FF010106060808040408087D
:100224000101010101FFFF04040B0806040B030391
:10023400040404FF08090908030303FF0809090863
:10024400030303FF01030E0E06080606FFFF010366
:100254000E010808090E0E0E0E0E0B080B0E0E0EE4
:100264000E0E0E010E0F0F0F0F0D0D0D0D0D0D0DBA
:10027400FFFFFF0D0D0E030E0E08080B0B0D0D0DE9
:100284000D0DFF0D0D0E030E0E08080B0B0D0D0DBD
:100294000D0DFF0E0E0D0E0F070F0F0FFF100F03A6
:1002A4000303FF0E0E0D0E0F0F0F0F0FFF010F0FA5
:1002B4000D0DFF0D0D0E030E0E08080B0B0D0D0D8D
:1002C4000D0EFF0D0D0E010E0E08080B0B0D0D0D7E
:1002D4000D0DFF0E0E0D0E0F0F0F0F0FFF100F0E53
:1002E4000E0EFF0E0E0D0E0F0F0F0F0FFF010F0F4F
:0A02F4000D0D030303030E0E0E0EA2
:0600A300E478FFF6D8FD31
:100081007900E94400601B7A009002FE780175A0B6
:1000910000E493F2A308B8000205A0D9F4DAF275DE
:0200A100A0FFBE
:1000A9007800E84400600A790175A000E4F309D8F2
:1000B900FC7800E84400600C7900900001E4F0A3AA
:0400C900D8FCD9FA8C
:0D007400758112120170E5826003020071B7
:040170007582002272
:00000001FF
