:040000000200743254
:03000B000200DB15
:0100130032BA
:01001B0032B2
:0100230032AA
:03002B000200D6FA
:100030000000E2FBEAF2802C0000E0FBEAF0802402
:10004000E6B50202EBF62200E2B50202EBF2220074
:10005000E0B50202EBF02230F6E0A88220F5D3EA08
:10006000C6F582228B822230F6E6A88220F5D9805E
:01007000CFC0
:0900CD00751000751100020071AC
:030071000200FE8C
:1000D600C2CF051132C0E0C082C083C0D0E5109007
:1000E600014193F58CE51090017693F58AB2B4D070
:1000F600D0D083D082D0E032D2AFD2A9D2AD75892A
:100106000175CB0B75CADCD2CA751000E5109001DB
:100116004193FFE51090017693FEEFB5060280024B
:10012600D28C74F6251150FAC28C75110005107424
:07013600CA251050D780D24A
:10014100FBFAF9FBFBFBFBFAF9FBFBFBFBFAF9FB07
:10015100FBFFF9F9F9FFFAFAFBFBFBFBF9FCFBFBEF
:10016100FBFBFAFFFAFAFBFBFBFBF9FCFBFBFAFAE0
:10017100F9F9FFFBF9E88B21682222E88B2168223B
:1001810022E88B216822FF21E0E0FF8B8B68E86881
:10019100E8215BE868E8688BFF8B8B68E868E821F9
:0A01A1005BE8E88B8BE0E0FFE8E08C
:0600A300E478FFF6D8FD31
:100081007900E94400601B7A009001AB780175A00A
:1000910000E493F2A308B8000205A0D9F4DAF275DE
:0200A100A0FFBE
:1000A9007800E84400600A790175A000E4F309D8F2
:1000B900FC7800E84400600C7900900001E4F0A3AA
:0400C900D8FCD9FA8C
:0D00740075811112013DE5826003020071EB
:04013D0075820022A5
:00000001FF
