:040000000200743254
:01000B0032C2
:0100130032BA
:01001B0032B2
:0100230032AA
:03002B000200D3FD
:100030000000E2FBEAF2802C0000E0FBEAF0802402
:10004000E6B50202EBF62200E2B50202EBF2220074
:10005000E0B50202EBF02230F6E0A88220F5D3EA08
:10006000C6F582228B822230F6E6A88220F5D9805E
:01007000CFC0
:0600CD0075100002007135
:030071000200DBAF
:1000D3000510531007C2CF3275A000D2AFD2AD7551
:1000E300CDE785CDCB75CC6A85CCCAD2CAE5109055
:0A00F300010193F5A085109080F341
:08010100065B4F666D7D077F70
:0600A300E478FFF6D8FD31
:100081007900E94400601B7A00900109780175A0AC
:1000910000E493F2A308B8000205A0D9F4DAF275DE
:0200A100A0FFBE
:1000A9007800E84400600A790175A000E4F309D8F2
:1000B900FC7800E84400600C7900900001E4F0A3AA
:0400C900D8FCD9FA8C
:0D0074007581101200FDE58260030200712D
:0400FD0075820022E6
:00000001FF
