:040000000200543274
:03000B00020125CA
:100010000000E2FBEAF2802C0000E0FBEAF0802422
:10002000E6B50202EBF62200E2B50202EBF2220094
:10003000E0B50202EBF02230F6E0A88220F5D3EA28
:10004000C6F582228B822230F6E6A88220F5D9807E
:01005000CFE0
:0F00AD00751000751800751900751AFF020051C3
:030051000201A702
:1000BC007580F0AE807F00EEF4FEEFF4EE54F0703D
:1000CC00047582FF227F007E00BE040050478E051F
:1000DC007407C39DF5F005F07401800225E0D5F09E
:1000EC00FBF4F580E580F4FD740F5D9001D293FD77
:1000FC00BDFF02801B8F04EC2C25E02DFC3395E01A
:10010C00FDEC24C2F582ED3401F583E493F58222F3
:10011C000E8E0780B47582FF22C020C0E0C0F0C0F4
:10012C0082C083C007C006C005C004C003C002C0A3
:10013C0001C000C0D075D0001200BC75D008AF82D1
:10014C00BFFF028012EFB51A02800CE5182410F8DC
:10015C00A60F05185318078F1AAF19740FC39FAE4B
:10016C0018C39E5407D39407F42410F987A085195B
:10017C00900519531907758C18758D6AD28DD0D0CE
:10018C00D000D001D002D003D004D005D006D007C7
:10019C00D083D082D0F0D0E0D0203275A000D2AF86
:1001AC00758C18758D6A758901D28CD28D120125CA
:0201BC0080FEC3
:1001C2003F065B4F666D7D077F6F777C585E797166
:0901D200FF0001FF02FFFFFF0323
:06008300E478FFF6D8FD51
:100061007900E94400601B7A009001DB780175A0FA
:1000710000E493F2A308B8000205A0D9F4DAF275FE
:02008100A0FFDE
:100089007800E84400600A790175A000E4F309D812
:10009900FC7800E84400600C7900900001E4F0A3CA
:0400A900D8FCD9FAAC
:0D0054007581201201BEE58260030200519B
:0401BE007582002224
:00000001FF
