:0600000002004C0200AFFB
:100008000000E2FBEAF2802C0000E0FBEAF080242A
:10001800E6B50202EBF62200E2B50202EBF222009C
:10002800E0B50202EBF02230F6E0A88220F5D3EA30
:10003800C6F582228B822230F6E6A88220F5D98086
:01004800CFE8
:0A00A500E4F508F509F50A02004928
:030049000201555C
:1000AF00C0E0C007C006C005C0D075D0007F0020DB
:1000BF00B2477E00BE0A00500D7D00BDFF00500309
:1000CF000D80F80E80EE0FBF14E5E4F508F509FF7B
:1000DF00BF0A00500D7E00BEFF0050030E80F80FC8
:1000EF0080EE30B2FD7F00BF0A00504F7E00BEFF92
:1000FF000050030E80F80F80EE0508E4B5080205E6
:10010F00097410B5080A7427B50905E4F508F5094F
:10011F007F00BF0A00500D7E00BEFF0050030E800F
:10012F00F80F80EE30B2FD7F00BF0A00500D7E0049
:10013F00BEFF0050030E80F80F80EED0D0D005D058
:10014F0006D007D0E032D2AFD2A8C288750B647543
:10015F000C0085088285098312025DAE8275F00A54
:10016F00EE84FE750BE8750C03850882850983C044
:10017F000612025D750B64750C00120234AD8275A8
:10018F000BE8750C03850882850983C005120234BC
:10019F00AC82AF83D005D006E50A24FC4070E50A97
:1001AF0075F003A49001B7730201C30201E90201C4
:1001BF00FE020210750B0A750C00850882850983F3
:1001CF0012025DAB82AF83EB24AEF582EF3402F502
:1001DF0083E493F5A07590078034EC7006ED7003FF
:1001EF00EE602BEE9002AE93F5A0759006801FEC9B
:1001FF007003ED6019ED9002AE93F5A07590058038
:10020F000DEC600AEC9002AE93F5A0759004050A10
:10021F007404B50A03750A007F00BFFF0040030294
:05022F00015B0F80F5EA
:0A02AE003F065B4F666D7D077F6F12
:100234007A10E4FBFCE58225E0F582E58333F5835F
:10024400EB33FBEC33FCEB950BF5F0EC950C400633
:09025400FCABF0438201DADD226B
:06007B00E478FFF6D8FD59
:100059007900E94400601B7A009002B8780175A024
:1000690000E493F2A308B8000205A0D9F4DAF27506
:02007900A0FFE6
:10025D00E50B450C60467A01E50B25E0F50BE50C49
:10026D00334012F50CE582950BE583950C40030A9E
:10027D0080E6C3E50C13F50CE50B13F50BC3E58216
:10028D00950BF5F0E583950C4005F58385F082C35C
:0D029D00E50C13F50CE50B13F50BDAE1226F
:100081007800E84400600A790175A000E4F309D81A
:10009100FC7800E84400600C7900900001E4F0A3D2
:0400A100D8FCD9FAB4
:0D004C0075810C1202AAE5826003020049D2
:0402AA007582002237
:00000001FF
