:0600000002004C0200AFFB
:100008000000E2FBEAF2802C0000E0FBEAF080242A
:10001800E6B50202EBF62200E2B50202EBF222009C
:10002800E0B50202EBF02230F6E0A88220F5D3EA30
:10003800C6F582228B822230F6E6A88220F5D98086
:01004800CFE8
:0A00A500E4F508F509F50A02004928
:03004900020102AF
:1000AF00C0E0C007C006C005C0D075D0007F0020DB
:1000BF00B21F7E00BE0A00500D7D00BDFF00500331
:1000CF000D80F80E80EE0FBF14E5E4F508F50980FA
:1000DF00170508E4B5080205097410B5080A742756
:1000EF00B50905E4F508F509D0D0D005D006D0073D
:1000FF00D0E032D2AFD2A8C288750B64750C0085E0
:10010F00088285098312020AAE8275F00AEE84FE18
:10011F00750BE8750C03850882850983C0061202EA
:10012F000A750B64750C001201E1AD82750BE87551
:10013F000C03850882850983C0051201E1AC82AFEB
:10014F0083D005D006E50A24FC4070E50A75F0035C
:10015F00A4900164730201700201960201AB0201C7
:10016F00BD750B0A750C0085088285098312020A7A
:10017F00AB82AF83EB245BF582EF3402F583E4931C
:10018F00F5A07590078034EC7006ED7003EE602BD0
:10019F00EE90025B93F5A0759006801FEC7003ED57
:1001AF006019ED90025B93F5A0759005800DEC60E2
:1001BF000AEC90025B93F5A0759004050A7404B5E0
:1001CF000A03750A007F00BFFF0040030201080FFA
:0201DF0080F5A9
:0A025B003F065B4F666D7D077F6F65
:1001E1007A10E4FBFCE58225E0F582E58333F583B3
:1001F100EB33FBEC33FCEB950BF5F0EC950C400687
:09020100FCABF0438201DADD22BE
:06007B00E478FFF6D8FD59
:100059007900E94400601B7A00900265780175A077
:1000690000E493F2A308B8000205A0D9F4DAF27506
:02007900A0FFE6
:10020A00E50B450C60467A01E50B25E0F50BE50C9C
:10021A00334012F50CE582950BE583950C40030AF1
:10022A0080E6C3E50C13F50CE50B13F50BC3E58269
:10023A00950BF5F0E583950C4005F58385F082C3AF
:0D024A00E50C13F50CE50B13F50BDAE122C2
:100081007800E84400600A790175A000E4F309D81A
:10009100FC7800E84400600C7900900001E4F0A3D2
:0400A100D8FCD9FAB4
:0D004C0075810C120257E582600302004925
:04025700758200228A
:00000001FF
