:0600000002004C0200AFFB
:100008000000E2FBEAF2802C0000E0FBEAF080242A
:10001800E6B50202EBF62200E2B50202EBF222009C
:10002800E0B50202EBF02230F6E0A88220F5D3EA30
:10003800C6F582228B822230F6E6A88220F5D98086
:01004800CFE8
:0A00A500E4F508F509F50A02004928
:0300490002015859
:1000AF00C0E0C007C006C005C0D075D0007F0020DB
:1000BF00B2477E00BE0A00500D7D00BDFF00500309
:1000CF000D80F80E80EE0FBF1EE5E4F508F509FF71
:1000DF00BF0A00500D7E00BEFF0050030E80F80FC8
:1000EF0080EE30B2FD7F00BF0A0050527E00BEFF8F
:1000FF000050030E80F80F80EE74322508F508E4E7
:10010F003509F5097410B5080A7427B50905E4F522
:10011F0008F5097F00BF0A00500D7E00BEFF00509A
:10012F00030E80F80F80EE30B2FD7F00BF0A005043
:10013F000D7E00BEFF0050030E80F80F80EED0D072
:10014F00D005D006D007D0E032D2AFD2A8C2887582
:10015F000B64750C00850882850983120260AE82DC
:10016F0075F00AEE84FE750BE8750C038508828521
:10017F000983C006120260750B64750C00120237FA
:10018F00AD82750BE8750C03850882850983C00560
:10019F00120237AC82AF83D005D006E50A24FC40AB
:1001AF0070E50A75F003A49001BA730201C602014B
:1001BF00EC020201020213750B0A750C008508820E
:1001CF00850983120260AB82AF83EB24B1F582EF16
:1001DF003402F583E493F5A07590078034EC700634
:1001EF00ED7003EE602BEE9002B193F5A0759006C3
:1001FF00801FEC7003ED6019ED9002B193F5A075BF
:10020F009005800DEC600AEC9002B193F5A075900B
:10021F0004050A7404B50A03750A007F00BFFF00C6
:08022F00400302015E0F80F59F
:0A02B1003F065B4F666D7D077F6F0F
:100237007A10E4FBFCE58225E0F582E58333F5835C
:10024700EB33FBEC33FCEB950BF5F0EC950C400630
:09025700FCABF0438201DADD2268
:06007B00E478FFF6D8FD59
:100059007900E94400601B7A009002BB780175A021
:1000690000E493F2A308B8000205A0D9F4DAF27506
:02007900A0FFE6
:10026000E50B450C60467A01E50B25E0F50BE50C46
:10027000334012F50CE582950BE583950C40030A9B
:1002800080E6C3E50C13F50CE50B13F50BC3E58213
:10029000950BF5F0E583950C4005F58385F082C359
:0D02A000E50C13F50CE50B13F50BDAE1226C
:100081007800E84400600A790175A000E4F309D81A
:10009100FC7800E84400600C7900900001E4F0A3D2
:0400A100D8FCD9FAB4
:0D004C0075810C1202ADE5826003020049CF
:0402AD007582002234
:00000001FF
