:040000000200743254
:01000B0032C2
:0100130032BA
:01001B0032B2
:0100230032AA
:03002B0002013E91
:100030000000E2FBEAF2802C0000E0FBEAF0802402
:10004000E6B50202EBF62200E2B50202EBF2220074
:10005000E0B50202EBF02230F6E0A88220F5D3EA08
:10006000C6F582228B822230F6E6A88220F5D9805E
:01007000CFC0
:1000CD00751000751800751900751AFF751B010262
:0200DD000071B0
:0300710002014643
:1000DF0075800FE51B60047582FF227F007E00BED6
:1000EF00040050478E057407C39DF5F005F07401A9
:1000FF00800225E0D5F0FBF4F580E580F4FD740F68
:10010F005D90019F93FDBDFF02801B8F04EC2C259A
:10011F00E02DFC3395E0FDEC248FF582ED3401F5F5
:10012F0083E493F582220E8E0780B47582FF22C27C
:10013F00CF051953190732D2AFD2A8D288D2ADD278
:10014F00CA75CA7875CBEC1200DFAF82BFFF028091
:10015F0012EFB51A02800CE5182410F8A60705183F
:10016F005318078F1AC3740F951895195407D39402
:0C017F0007F42410F987A085199080CBAC
:10018F003F065B4F666D7D077F6F777C585E797199
:09019F00FF0001FF02FFFFFF0356
:0600A300E478FFF6D8FD31
:100081007900E94400601B7A009001A8780175A00D
:1000910000E493F2A308B8000205A0D9F4DAF275DE
:0200A100A0FFBE
:1000A9007800E84400600A790175A000E4F309D8F2
:1000B900FC7800E84400600C7900900001E4F0A3AA
:0400C900D8FCD9FA8C
:0D00740075811B12018BE582600302007193
:04018B007582002257
:00000001FF
