:060000000200740200DFA3
:01000B0032C2
:0100130032BA
:01001B0032B2
:0100230032AA
:03002B000201458A
:100030000000E2FBEAF2802C0000E0FBEAF0802402
:10004000E6B50202EBF62200E2B50202EBF2220074
:10005000E0B50202EBF02230F6E0A88220F5D3EA08
:10006000C6F582228B822230F6E6A88220F5D9805E
:01007000CFC0
:1000CD00751000751800751900751AFF751B010262
:0200DD000071B0
:0300710002014D3C
:1000DF00751B003275800FE51B60047582FF22755A
:1000EF001B007F007E00BE040050478E057407C3BF
:1000FF009DF5F005F07401800225E0D5F0FBF4F5D5
:10010F0080E580F4FD740F5D9001A693FDBDFF02A5
:10011F00801B8F04EC2C25E02DFC3395E0FDEC24A7
:10012F0096F582ED3401F583E493F582220E8E0766
:10013F0080B47582FF22C2CF051953190732D2AF8F
:10014F00D2A8D288D2ADD2CA75CA7875CBEC1200BC
:10015F00E3AF82BFFF028012EFB51A02800CE518E1
:10016F002410F8A60705185318078F1AC3740F9594
:10017F001895195407D39407F42410F987A08519FB
:03018F009080CB92
:100196003F065B4F666D7D077F6F777C585E797192
:0901A600FF0001FF02FFFFFF034F
:0600A300E478FFF6D8FD31
:100081007900E94400601B7A009001AF780175A006
:1000910000E493F2A308B8000205A0D9F4DAF275DE
:0200A100A0FFBE
:1000A9007800E84400600A790175A000E4F309D8F2
:1000B900FC7800E84400600C7900900001E4F0A3AA
:0400C900D8FCD9FA8C
:0D00740075811B120192E58260030200718C
:040192007582002250
:00000001FF
