:0300000002004CAF
:100008000000E2FBEAF2802C0000E0FBEAF080242A
:10001800E6B50202EBF62200E2B50202EBF222009C
:10002800E0B50202EBF02230F6E0A88220F5D3EA30
:10003800C6F582228B822230F6E6A88220F5D98086
:01004800CFE8
:1000A5007508E77509DB750ABD750B7E750CBD75A1
:0500B5000DDB02004913
:030049000200BAF8
:1000BA007F00EF2408F987A07D007E00C3ED9450ED
:1000CA00EE94C350070DBD00F30E80F00FBF06E299
:0400DA007F0080DE45
:06007B00E478FFF6D8FD59
:100059007900E94400601B7A009000E2780175A0FC
:1000690000E493F2A308B8000205A0D9F4DAF27506
:02007900A0FFE6
:100081007800E84400600A790175A000E4F309D81A
:10009100FC7800E84400600C7900900001E4F0A3D2
:0400A100D8FCD9FAB4
:0D004C0075810D1200DEE58260030200499F
:0400DE007582002205
:00000001FF
