:0300000002004CAF
:100008000000E2FBEAF2802C0000E0FBEAF080242A
:10001800E6B50202EBF62200E2B50202EBF222009C
:10002800E0B50202EBF02230F6E0A88220F5D3EA30
:10003800C6F582228B822230F6E6A88220F5D98086
:01004800CFE8
:0300B10002004901
:030049000200B4FE
:0800B40075A0001200BC80FBE6
:06007B00E478FFF6D8FD59
:100059007900E94400601B7A0090018F780175A04E
:1000690000E493F2A308B8000205A0D9F4DAF27506
:02007900A0FFE6
:0C00A5007508007510007511007512FF41
:1000BC00120102AE82BEFF028012EEB51202800C5B
:1000CC00E5102408F8A60605105310078E12AF1081
:1000DC00740FC39FAE11C39E5407D39407F4240826
:1000EC00F987A085119005115311077F00BFFF0000
:1000FC0050030F80F8227580F0AE807F00EEF4FE86
:10010C00EFF4EE54F070047582FF227F007E00BE87
:10011C00040050518E057407C39DF5F005F0740171
:10012C00800225E0D5F0FBF4F5807D00BD0A00507F
:10013C00030D80F8E580F4FD740F5D90018693FD4E
:10014C00BDFF02801B8F04EC2C25E02DFC3395E0C9
:10015C00FDEC2476F582ED3401F583E493F58222EF
:06016C000E8E0780AA229E
:100176003F065B4F666D7D077F6F777C585E7971B2
:09018600FF0001FF02FFFFFF036F
:100081007800E84400600A790175A000E4F309D81A
:10009100FC7800E84400600C7900900001E4F0A3D2
:0400A100D8FCD9FAB4
:0D004C00758112120172E582600302004905
:040172007582002270
:00000001FF
