:0300000002004CAF
:100008000000E2FBEAF2802C0000E0FBEAF080242A
:10001800E6B50202EBF62200E2B50202EBF222009C
:10002800E0B50202EBF02230F6E0A88220F5D3EA30
:10003800C6F582228B822230F6E6A88220F5D98086
:01004800CFE8
:0300AE0002004904
:030049000200B101
:0800B10075A0001200B980FBEC
:06007B00E478FFF6D8FD59
:100059007900E94400601B7A009002E2780175A0FA
:1000690000E493F2A308B8000205A0D9F4DAF27506
:02007900A0FFE6
:0900A500750800751000751100CA
:1000B900120257AE82BEFF028010E5102408F8A68E
:1000C900060510AF105307078F10AE107F00740F8D
:1000D900C39EFEE49FFFAC117D00EEC39CF582EF49
:1000E9009DF5837512088D13120298AE827407C3A9
:1000F9009E2408F987A08511900511AF11530707B0
:100109008F117F00BFFF0050030F80F822E51245D1
:100119001360467A01E51225E0F512E51333401222
:10012900F513E5829512E583951340030A80E6C32A
:10013900E51313F513E51213F512C3E5829512F5CC
:10014900F0E58395134005F58385F082C3E5131324
:10015900F513E51213F512DAE122AF827407C39F92
:10016900F5F005F07401800225E0D5F0FBF4F58087
:100179007F00BF0A0050030F80F8E58020E02F7F41
:1001890000BF0A00500D7E00BEFF0050030E80F82C
:100199000F80EE3080FD7F00BF0A00500D7E00BE4B
:1001A900FF0050030E80F80F80EE75820022E58073
:1001B90020E12F7F00BF0A00500D7E00BEFF0050D6
:1001C900030E80F80F80EE3081FD7F00BF0A0050DA
:1001D9000D7E00BEFF0050030E80F80F80EE758281
:1001E9000122E58020E22F7F00BF0A00500D7E002A
:1001F900BEFF0050030E80F80F80EE3082FD7F00B5
:10020900BF0A00500D7E00BEFF0050030E80F80F9C
:1002190080EE75820222E58020E32F7F00BF0A006D
:10022900500D7E00BEFF0050030E80F80F80EE30A7
:1002390083FD7F00BF0A00500D7E00BEFF00500302
:100249000E80F80F80EE758203227582FF227F00EF
:100259007E00BE040050348E82C007C006120163BE
:10026900AD82D006D007BDFF02801B8F04EC2C2580
:10027900E02DFC3395E0FDEC24D2F582ED3402F556
:0F02890083E493F582220E8E0780C77582FF22D1
:1002D2003F065B4F666D7D077F6F777C585E797155
:100081007800E84400600A790175A000E4F309D81A
:10009100FC7800E84400600C7900900001E4F0A3D2
:0400A100D8FCD9FAB4
:0D004C007581131202CEE5826003020049A7
:10029800C2D5E58330E70DD2D5E4C39582F582E473
:1002A8009583F583E51330E70BE4C39512F512E463
:1002B8009513F51312011630D50BE4C39582F58218
:0A02C800E49583F58322758200227D
:00000001FF
