:0300000002004CAF
:100008000000E2FBEAF2802C0000E0FBEAF080242A
:10001800E6B50202EBF62200E2B50202EBF222009C
:10002800E0B50202EBF02230F6E0A88220F5D3EA30
:10003800C6F582228B822230F6E6A88220F5D98086
:01004800CFE8
:0300AE0002004904
:030049000200B101
:0800B10075A0001200B980FBEC
:06007B00E478FFF6D8FD59
:100059007900E94400601B7A00900228780175A0B4
:1000690000E493F2A308B8000205A0D9F4DAF27506
:02007900A0FFE6
:0900A500750800751000751100CA
:1000B900120163AE82BEFF028010E5102408F8A683
:1000C900060510AF105307078F10AE107F00740F8D
:1000D900C39EFEE49FFFAC117D00EEC39CF582EF49
:1000E9009DF5837512088D131201D5AE827407C36D
:1000F9009E2408F987A08511900511AF11530707B0
:100109008F117F00BFFF0050030F80F822E51245D1
:100119001360467A01E51225E0F512E51333401222
:10012900F513E5829512E583951340030A80E6C32A
:10013900E51313F513E51213F512C3E5829512F5CC
:10014900F0E58395134005F58385F082C3E5131324
:10015900F513E51213F512DAE1227F007E00BE04E1
:100169000050658E057407C39DF5F005F074018094
:100179000225E0D5F0FBF4F5807D00BD0A005003AF
:100189000D80F8E580F4FD740F5D90021F93FDBDAD
:10019900FF02802F7C00BC5000500D7B00BBFF008C
:1001A90050030B80F80C80EE8F04EC2C25E02DFC1D
:1001B9003395E0FDEC240FF582ED3402F583E493E9
:0C01C900F582220E8E0780967582FF22C0
:10020F003F065B4F666D7D077F6F777C585E797118
:09021F00FF0001FF02FFFFFF03D5
:100081007800E84400600A790175A000E4F309D81A
:10009100FC7800E84400600C7900900001E4F0A3D2
:0400A100D8FCD9FAB4
:0D004C0075811312020BE58260030200496A
:1001D500C2D5E58330E70DD2D5E4C39582F582E437
:1001E5009583F583E51330E70BE4C39512F512E427
:1001F5009513F51312011630D50BE4C39582F582DC
:0A020500E49583F583227582002240
:00000001FF
