:0300000002004CAF
:100008000000E2FBEAF2802C0000E0FBEAF080242A
:10001800E6B50202EBF62200E2B50202EBF222009C
:10002800E0B50202EBF02230F6E0A88220F5D3EA30
:10003800C6F582228B822230F6E6A88220F5D98086
:01004800CFE8
:0300AE0002004904
:030049000200B101
:0800B10075A0001200B980FBEC
:06007B00E478FFF6D8FD59
:100059007900E94400601B7A0090023F780175A09D
:1000690000E493F2A308B8000205A0D9F4DAF27506
:02007900A0FFE6
:0900A500750800751000751100CA
:1000B9001201ABAE82BEFF028010E5102408F8A63B
:1000C900060510AF105307078F10AE107F00740F8D
:1000D900C39EFEE49FFFAC117D00EEC39CF582EF49
:1000E9009DF5837512088D131201ECAE827407C356
:1000F9009E2408F987A08511900511AF11530707B0
:100109008F117F00BFFF0050030F80F822E51245D1
:100119001360467A01E51225E0F512E51333401222
:10012900F513E5829512E583951340030A80E6C32A
:10013900E51313F513E51213F512C3E5829512F5CC
:10014900F0E58395134005F58385F082C3E5131324
:10015900F513E51213F512DAE122AF827407C39F92
:10016900F5F005F07401800225E0D5F0FBF4F58087
:100179007F00BF0A0050030F80F8E580F4FF740F79
:100189005F90023693FFBFFF0280147E00BE5000CD
:10019900500D7D00BDFF0050030D80F80E80EE8FDD
:1001A90082227F007E00BE040050348E82C007C0C8
:1001B90006120163AD82D006D007BDFF02801B8FF6
:1001C90004EC2C25E02DFC3395E0FDEC2426F5828A
:1001D900ED3402F583E493F582220E8E0780C7750C
:0301E90082FF2270
:100226003F065B4F666D7D077F6F777C585E797101
:09023600FF0001FF02FFFFFF03BE
:100081007800E84400600A790175A000E4F309D81A
:10009100FC7800E84400600C7900900001E4F0A3D2
:0400A100D8FCD9FAB4
:0D004C00758113120222E582600302004953
:1001EC00C2D5E58330E70DD2D5E4C39582F582E420
:1001FC009583F583E51330E70BE4C39512F512E410
:10020C009513F51312011630D50BE4C39582F582C4
:0A021C00E49583F583227582002229
:00000001FF
