:0300000002004CAF
:100008000000E2FBEAF2802C0000E0FBEAF080242A
:10001800E6B50202EBF62200E2B50202EBF222009C
:10002800E0B50202EBF02230F6E0A88220F5D3EA30
:10003800C6F582228B822230F6E6A88220F5D98086
:01004800CFE8
:1000A50075083F750906750A5B750B4F750C667506
:0E00B5000D6D750E7D750F0775100002004968
:030049000200C3EF
:1000C300E51030E013E5102408F98707C007851011
:1000D300821200FE1581800DE5102408F987128530
:1000E30010821200F705105310077F00BFFF005066
:1000F300CF0F80F88512A085829022C011858111CF
:0D010300858290E51124FDF886A0D0112220
:06007B00E478FFF6D8FD59
:100059007900E94400601B7A00900114780175A0C9
:1000690000E493F2A308B8000205A0D9F4DAF27506
:02007900A0FFE6
:100081007800E84400600A790175A000E4F309D81A
:10009100FC7800E84400600C7900900001E4F0A3D2
:0400A100D8FCD9FAB4
:0D004C00758112120110E582600302004967
:0401100075820022D2
:00000001FF
