:040000000200743254
:01000B0032C2
:0100130032BA
:01001B0032B2
:0100230032AA
:03002B000200D9F7
:100030000000E2FBEAF2802C0000E0FBEAF0802402
:10004000E6B50202EBF62200E2B50202EBF2220074
:10005000E0B50202EBF02230F6E0A88220F5D3EA08
:10006000C6F582228B822230F6E6A88220F5D9805E
:01007000CFC0
:0C00CD00752100752900753303020071D5
:0300710002017316
:1000D900C0E0C0D075D008C2CFE529F5902421F938
:1000E90087A005297408B52903752900D0D0D0E067
:1000F9003275800FAE807F00EEF4FEEFF4EE540F00
:1001090070047582FF22AE807F00EEF4FEEFF45397
:10011900060F7F00BE0107BF000475820022AE8072
:100129007F00EEF4FEEFF453060F7F00BE0207BF17
:10013900000475820122AE807F00EEF4FEEFF453D5
:10014900060F7F00BE0407BF000475820222AE803D
:100159007F00EEF4FEEFF453060F7F00BE0807BFE1
:100169000004758203227582FF22D2AFD2AD75CB0E
:10017900F975CA60D2CA1200FAAF82BFFF028002C3
:100189008F3312023412035580ECAE82AF83C3E47D
:100199009E74808FF063F08095F0500F7D6EED6056
:1001A900031D80FA1EBEFF011F80E322D2B3900017
:1001B90001120193C2B390000F120193D2B39000C0
:1001C900010201937F007E00EFC313FFC2B3D2B3D4
:1001D90030B303430780900001C007C006120193A2
:1001E900D006D0070EBE080040DE8F8222AF827E85
:1001F90001EE24F7403474015FFDEFC313FFED6096
:1002090013C2B3D2B37C087D00EC4D601A1CBCFF4D
:10021900011D80F5C2B37C087D00EC4D60071CBC54
:10022900FF011D80F5D2B30E80C7221201B5C2B3FA
:100239007582CC1201F675824E1201F67582001292
:1002490001F67582001201F6E53375F002A424BDAA
:10025900F582740635F0F583E493F5821201F612FE
:1002690001B5C2B37582CC1201F67582441201F64A
:10027900E53375F002A424C5F582740635F0F583DB
:10028900E493FEA3E493FF8E828F831201931201FC
:10029900B5C2B37582CC1201F67582BE1201F67F22
:1002A90000BF09005015EF242AF9C007C001120147
:1002B900CDE582D001D007F70F80E6AF2B7E00ACE9
:1002C9002A7D00EC4EF582ED4FF58322AD82AE8397
:1002D900AFF07C007B00C3EB95105032EB2DF8E4B6
:1002E9003EF98F02888289838AF01205D262047AE4
:1002F90000BA08005015EC30E00AECC313F9748C0D
:1003090069FC8004ECC313FC0A80E60B80C88C826C
:1003190022AD82AE83AFF0751008C007C006C005D4
:100329001202D5AC82D005D006D00774082DFDE4A1
:100339003EFE8D828E838FF01205D2FDECB505034A
:10034900D38001C3B39200E433F58222AE82AF8336
:100359008E04EFC4CCC4540F6CCC540FCC6CCC308D
:10036900E30244F08C3453060F7F00E53375F00443
:10037900A424ADF582740635F0F583E493F539A329
:10038900E493F53AA3E493F53BA3E493F53C8E8219
:100399008F83120576AC82AD83AEF0FFC039C03AC7
:1003A900C03BC03C8C828D838EF0EF120472858233
:1003B9003585833685F037F538E58124FCF581905C
:1003C900002A75F04012031AE5829006A393F521DD
:1003D900AB348B0275F00AEA8475F00A84E5F09073
:1003E90006A393F52575F00AEB84E5F09006A3932F
:1003F900FB74804BF526C035C036C037C038900035
:100409000075F0207441120472AA82AB83AEF0FF2A
:10041900E58124FCF5818A828B838EF0EF1205EE4B
:10042900AF8275F00AEF84E5F09006A393F527C033
:1004390035C036C037C03890000075F0C874421214
:100449000472AC82AD83AEF0FFE58124FCF5818CAA
:10045900828D838EF0EF1205EEAF8275F00AEF847C
:09046900E5F09006A393F52822AA
:1006A3003F065B4F666D7D077F6F0000003F0000D4
:1006B300803E0000003E0000803D1F003F005F00C1
:0A06C3007F001D0139027104E108F7
:10047200120515BC00030205A4EF60FA30D502B2E2
:10048200D1E583B4FF030205BAE582B4FF03020596
:10049200BA258340072482400B0205A4248314500A
:1004A200030205BAF582EA8DF0A4A8F0EA8EF0A460
:1004B20028F8E435F0F9EB8DF0A428E935F0F9E4F9
:1004C20033CA8FF0A429F9EA35F0FAEBF88EF0A4DA
:1004D20029F9EA35F0FAE433FBEC8DF0A429F9EAC4
:1004E20035F0FAE43BFBE88FF0A42AFAEB35F0FB97
:1004F200E433CCFD8EF0A42AFAEB35F0FBE43CFCAD
:10050200ED8FF0A42BFBEC35F0FC20E70312054342
:10051200020583AA82AB83A2F73392D1F5826002ED
:10052200D2F7ACF0E58124F9F8E6FD08E6FE08868C
:10053200F008E6A2F73392D5F5836002D2F7AFF066
:010542002296
:0600A300E478FFF6D8FD31
:100543007804EC7011E58224F8500AF582E4C9CAF4
:10055300CBFCD8EF22EC7820058220E713D582016B
:1005630022C3E933F9EA33FAEB33FBEC33FCD8EA81
:03057300158222CC
:100081007900E94400601B7A009006CD780175A0E3
:1000910000E493F2A308B8000205A0D9F4DAF275DE
:0200A100A0FFBE
:1000A9007800E84400600A790175A000E4F309D8F2
:1000B900FC7800E84400600C7900900001E4F0A3AA
:0400C900D8FCD9FA8C
:10057600AC83AB827A007900748E0205FFB98003E2
:10058600EA13B34010EA2401FAE43BFBE43CFC50D6
:10059600047C800582BC000EBB000BBA0008E4F5A3
:1005A600F0F583F58222A2D1E582138CF092F78BC7
:1005B600838A8222E4F583F58275F080F4A2D11352
:0C05C60022E4F583F58275F0C0747F22FA
:0D00740075813C12064AE5826003020071AE
:1005D20020F71430F6148883A88220F507E6A88352
:1005E20075830022E280F7E49322E0227F861206DE
:1005F20025F58222FCABF0AA83A982749EF582C201
:10060200D1EC30E716D2D1E9F42401F9EAF434004E
:10061200FAEBF43400FBECF43400FC12054302055F
:10062200837F9E12069130D1030205A4C3EF958207
:10063200500974FFF5F0F583F58222790012064E17
:1006420089828A838BF0EC22758200226040F82531
:1006520082500274FFF582E824F8501ECCCBCAF90E
:10066200E4CC24F85014CBCAF9E4CB24F8500BCADA
:10067200F9E4CA24F8500379002224086010F8C370
:10068200EC13FCEB13FBEA13FAE913F9D8F122AAF3
:1006920082AB83A2F73392D1F5826002D2F7ACF03B
:0106A2002235
:00000001FF
