:0300000002004CAF
:100008000000E2FBEAF2802C0000E0FBEAF080242A
:10001800E6B50202EBF62200E2B50202EBF222009C
:10002800E0B50202EBF02230F6E0A88220F5D3EA30
:10003800C6F582228B822230F6E6A88220F5D98086
:01004800CFE8
:0900A50075080075100002004905
:030049000200AE04
:1000AE00120159120197E510F5902408F987A00561
:1000BE00107408B510EA75100080E5AF82EF600B82
:1000CE007E6EEE60031E80FA1F80F222D2B375821E
:1000DE00011200C9C2B375820F1200C9D2B3758264
:1000EE00010200C97F007E00EFC313FFC2B3D2B37B
:1000FE0030B303430780758201C007C0061200C9E2
:10010E00D006D0070EBE080040DE8F8222AF827E60
:10011E0001EE24F7403474015FFDEFC313FFED6071
:10012E0013C2B3D2B37C087D00EC4D601A1CBCFF29
:10013E00011D80F5C2B37C087D00EC4D60071CBC30
:10014E00FF011D80F5D2B30E80C7221200DAC2B3B2
:10015E007582CC12011B75824412011B1200DAC289
:10016E00B37582CC12011B7582BE12011B1200F2F6
:10017E00AF82C0071200F2AE82D0078E05E4FEFCFD
:10018E00EF4EF582EC4DF58322AE82AF838E04EFF7
:10019E00C4CCC4540F6CCC540FCC6CCC30E30244A2
:1001AE00F0740F5EF582758300C004120384AB8277
:1001BE00AD83AEF0FFC003C005C006C007900000BF
:1001CE0075F080743D12028085821185831285F050
:1001DE0013F514E58124FCF581D0048C0275F00A28
:1001EE00EA8475F00A84E5F090049593F50C75F0A9
:1001FE000AEC84E5F090049593FC74804CF50DC0E8
:10020E0011C012C013C01490000075F0207441127A
:10021E000280AA82AC83AEF0FFE58124FCF5818AD0
:10022E00828C838EF0EF1203E0AF8275F00AEF84BA
:10023E00E5F090049593F50EC011C012C013C014D2
:10024E0090000075F0C87442120280AC82AD83AE8D
:10025E00F0FFE58124FCF5818C828D838EF0EF1208
:10026E0003E0AF8275F00AEF84E5F090049593F504
:02027E000F224D
:0A0495003F065B4F666D7D077F6F29
:10028000120323BC00030203B2EF60FA30D502B2BE
:10029000D1E583B4FF030203C8E582B4FF03020380
:1002A000C8258340072482400B0203B224831450E4
:1002B000030203C8F582EA8DF0A4A8F0EA8EF0A448
:1002C00028F8E435F0F9EB8DF0A428E935F0F9E4ED
:1002D00033CA8FF0A429F9EA35F0FAEBF88EF0A4CE
:1002E00029F9EA35F0FAE433FBEC8DF0A429F9EAB8
:1002F00035F0FAE43BFBE88FF0A42AFAEB35F0FB8B
:10030000E433CCFD8EF0A42AFAEB35F0FBE43CFCA0
:10031000ED8FF0A42BFBEC35F0FC20E7031203512A
:10032000020391AA82AB83A2F73392D1F5826002D5
:10033000D2F7ACF0E58124F9F8E6FD08E6FE088680
:10034000F008E6A2F73392D5F5836002D2F7AFF05A
:01035000228A
:06007B00E478FFF6D8FD59
:100351007804EC7011E58224F8500AF582E4C9CAE8
:10036100CBFCD8EF22EC7820058220E713D582015F
:1003710022C3E933F9EA33FAEB33FBEC33FCD8EA75
:03038100158222C0
:100059007900E94400601B7A0090049F780175A03B
:1000690000E493F2A308B8000205A0D9F4DAF27506
:02007900A0FFE6
:100081007800E84400600A790175A000E4F309D81A
:10009100FC7800E84400600C7900900001E4F0A3D2
:0400A100D8FCD9FAB4
:10038400AC83AB827A007900748E0203F1B98003E6
:10039400EA13B34010EA2401FAE43BFBE43CFC50CA
:1003A400047C800582BC000EBB000BBA0008E4F597
:1003B400F0F583F58222A2D1E582138CF092F78BBB
:1003C400838A8222E4F583F58275F080F4A2D11346
:0C03D40022E4F583F58275F0C0747F22EE
:0D004C0075811412043CE582600302004936
:1003E0007F86120417F58222FCABF0AA83A98274DF
:1003F0009EF582C2D1EC30E716D2D1E9F42401F99E
:10040000EAF43400FAEBF43400FBECF43400FC12B0
:1004100003510203917F9E12048330D1030203B281
:10042000C3EF9582500974FFF5F0F583F5822279C8
:100430000012044089828A838BF0EC2275820022AC
:100440006040F82582500274FFF582E824F8501EBF
:10045000CCCBCAF9E4CC24F85014CBCAF9E4CB24B1
:10046000F8500BCAF9E4CA24F85003790022240892
:100470006010F8C3EC13FCEB13FBEA13FAE913F971
:10048000D8F122AA82AB83A2F73392D1F58260021F
:05049000D2F7ACF022E0
:00000001FF
