:040000000200743254
:01000B0032C2
:0100130032BA
:01001B0032B2
:0100230032AA
:03002B000200D6FA
:100030000000E2FBEAF2802C0000E0FBEAF0802402
:10004000E6B50202EBF62200E2B50202EBF2220074
:10005000E0B50202EBF02230F6E0A88220F5D3EA08
:10006000C6F582228B822230F6E6A88220F5D9805E
:01007000CFC0
:0900CD00751000751800020071A5
:030071000200F793
:1000D600C0E0C0D075D008C2CFE518F5902410F95D
:1000E60087A005187408B51803751800D0D0D0E09D
:1000F60032D2AFD2AD75CBEA75CA60D2CA12019BB5
:100106001201D980F8AF82EF600B7E6EEE60031E9F
:1001160080FA1F80F222D2B375820112010BC2B39C
:1001260075820F12010BD2B375820102010B7F009B
:100136007E00EFC313FFC2B3D2B330B303430780CD
:10014600758201C007C00612010BD006D0070EBE8D
:10015600080040DE8F8222AF827E01EE24F7403413
:1001660074015FFDEFC313FFED6013C2B3D2B37C1E
:10017600087D00EC4D601A1CBCFF011D80F5C2B362
:100186007C087D00EC4D60071CBCFF011D80F5D28C
:10019600B30E80C72212011CC2B37582CC12015D58
:1001A60075824412015D12011CC2B37582CC120124
:1001B6005D7582BE12015D120134AF82C007120165
:1001C60034AE82D0078E05E4FEFCEF4EF582EC4D90
:1001D600F58322AE82AF838E04EFC4CCC4540F6C79
:1001E600CC540FCC6CCC30E30244F0740F5EF58235
:1001F600758300C0041203C6AB82AD83AEF0FFC0A8
:1002060003C005C006C00790000075F080743D125B
:1002160002C285821985831A85F01BF51CE58124A7
:10022600FCF581D0048C0275F00AEA8475F00A8424
:10023600E5F09004D793F51475F00AEC84E5F09098
:1002460004D793FC74804CF515C019C01AC01BC0A6
:100256001C90000075F02074411202C2AA82AC8381
:10026600AEF0FFE58124FCF5818A828C838EF0EF67
:10027600120422AF8275F00AEF84E5F09004D7935A
:10028600F516C019C01AC01BC01C90000075F0C836
:1002960074421202C2AC82AD83AEF0FFE58124FC4B
:1002A600F5818C828D838EF0EF120422AF8275F079
:0C02B6000AEF84E5F09004D793F51722BE
:0A04D7003F065B4F666D7D077F6FE7
:1002C200120365BC00030203F4EF60FA30D502B2F8
:1002D200D1E583B4FF0302040AE582B4FF030204FA
:1002E2000A258340072482400B0203F4248314501E
:1002F2000302040AF582EA8DF0A4A8F0EA8EF0A4C3
:1003020028F8E435F0F9EB8DF0A428E935F0F9E4AA
:1003120033CA8FF0A429F9EA35F0FAEBF88EF0A48B
:1003220029F9EA35F0FAE433FBEC8DF0A429F9EA75
:1003320035F0FAE43BFBE88FF0A42AFAEB35F0FB48
:10034200E433CCFD8EF0A42AFAEB35F0FBE43CFC5E
:10035200ED8FF0A42BFBEC35F0FC20E703120393A6
:100362000203D3AA82AB83A2F73392D1F582600251
:10037200D2F7ACF0E58124F9F8E6FD08E6FE08863E
:10038200F008E6A2F73392D5F5836002D2F7AFF018
:010392002248
:0600A300E478FFF6D8FD31
:100393007804EC7011E58224F8500AF582E4C9CAA6
:1003A300CBFCD8EF22EC7820058220E713D582011D
:1003B30022C3E933F9EA33FAEB33FBEC33FCD8EA33
:0303C3001582227E
:100081007900E94400601B7A009004E1780175A0D1
:1000910000E493F2A308B8000205A0D9F4DAF275DE
:0200A100A0FFBE
:1000A9007800E84400600A790175A000E4F309D8F2
:1000B900FC7800E84400600C7900900001E4F0A3AA
:0400C900D8FCD9FA8C
:1003C600AC83AB827A007900748E020433B9800361
:1003D600EA13B34010EA2401FAE43BFBE43CFC5088
:1003E600047C800582BC000EBB000BBA0008E4F555
:1003F600F0F583F58222A2D1E582138CF092F78B79
:10040600838A8222E4F583F58275F080F4A2D11303
:0C04160022E4F583F58275F0C0747F22AB
:0D00740075811C12047EE58260030200719C
:100422007F86120459F58222FCABF0AA83A982745A
:100432009EF582C2D1EC30E716D2D1E9F42401F95B
:10044200EAF43400FAEBF43400FBECF43400FC126E
:1004520003930203D37F9E1204C530D1030203F437
:10046200C3EF9582500974FFF5F0F583F582227986
:100472000012048289828A838BF0EC227582002228
:100482006040F82582500274FFF582E824F8501E7D
:10049200CCCBCAF9E4CC24F85014CBCAF9E4CB246F
:1004A200F8500BCAF9E4CA24F85003790022240850
:1004B2006010F8C3EC13FCEB13FBEA13FAE913F92F
:1004C200D8F122AA82AB83A2F73392D1F5826002DD
:0504D200D2F7ACF0229E
:00000001FF
